{
  "contractName": "RegistroAutorContract",
  "abi": [
    {
      "constant": true,
      "inputs": [
        {
          "name": "",
          "type": "address"
        }
      ],
      "name": "Documentos",
      "outputs": [
        {
          "name": "Id",
          "type": "address"
        },
        {
          "name": "HashDocumento",
          "type": "string"
        },
        {
          "name": "NombreDocumento",
          "type": "string"
        }
      ],
      "payable": false,
      "stateMutability": "view",
      "type": "function"
    },
    {
      "constant": true,
      "inputs": [
        {
          "name": "",
          "type": "uint256"
        },
        {
          "name": "nombreDoc",
          "type": "string"
        },
        {
          "name": "nombreDoc",
          "type": "string"
        }
      ],
      "name": "AutorAccts",
      "outputs": [
        {
          "name": "",
          "type": "address"
        }
      ],
      "payable": false,
      "stateMutability": "view",
      "type": "function"
    },
    {
      "constant": false,
      "inputs": [
        {
          "name": "id",
          "type": "address"
        },
        {
          "name": "hashDoc",
          "type": "string"
        },
        {
          "name": "nombreDoc",
          "type": "string"
        }
      ],
      "name": "RegistrarDocumento",
      "outputs": [
        {
          "name": "HashDocumento",
          "type": "string"
        },
        {
          "name": "NombreDocumento",
          "type": "string"
        }
      ],
      "payable": false,
      "stateMutability": "nonpayable",
      "type": "function"
    },
    {
      "constant": true,
      "inputs": [
        {
          "name": "id",
          "type": "address"
        }
      ],
      "name": "ListarDocumentos",
      "outputs": [
        {
          "name": "HashDocumento",
          "type": "string"
        },
        {
          "name": "NombreDocumento",
          "type": "string"
        }
      ],
      "payable": false,
      "stateMutability": "view",
      "type": "function"
    }
  ],
  "bytecode": "0x608060405234801561001057600080fd5b50610a48806100206000396000f3fe608060405260043610610062576000357c0100000000000000000000000000000000000000000000000000000000900463ffffffff16806344052d5f14610067578063719c7343146101d0578063b594047014610306578063c9a401a814610381575b600080fd5b34801561007357600080fd5b506100b66004803603602081101561008a57600080fd5b81019080803573ffffffffffffffffffffffffffffffffffffffff169060200190929190505050610500565b604051808473ffffffffffffffffffffffffffffffffffffffff1673ffffffffffffffffffffffffffffffffffffffff1681526020018060200180602001838103835285818151815260200191508051906020019080838360005b8381101561012c578082015181840152602081019050610111565b50505050905090810190601f1680156101595780820380516001836020036101000a031916815260200191505b50838103825284818151815260200191508051906020019080838360005b83811015610192578082015181840152602081019050610177565b50505050905090810190601f1680156101bf5780820380516001836020036101000a031916815260200191505b509550505050505060405180910390f35b3480156101dc57600080fd5b5061021f600480360360208110156101f357600080fd5b81019080803573ffffffffffffffffffffffffffffffffffffffff16906020019092919050505061067a565b604051808060200180602001838103835285818151815260200191508051906020019080838360005b83811015610263578082015181840152602081019050610248565b50505050905090810190601f1680156102905780820380516001836020036101000a031916815260200191505b50838103825284818151815260200191508051906020019080838360005b838110156102c95780820151818401526020810190506102ae565b50505050905090810190601f1680156102f65780820380516001836020036101000a031916815260200191505b5094505050505060405180910390f35b34801561031257600080fd5b5061033f6004803603602081101561032957600080fd5b8101908080359060200190929190505050610840565b604051808273ffffffffffffffffffffffffffffffffffffffff1673ffffffffffffffffffffffffffffffffffffffff16815260200191505060405180910390f35b34801561038d57600080fd5b506104fe600480360360608110156103a457600080fd5b81019080803573ffffffffffffffffffffffffffffffffffffffff169060200190929190803590602001906401000000008111156103e157600080fd5b8201836020820111156103f357600080fd5b8035906020019184600183028401116401000000008311171561041557600080fd5b91908080601f016020809104026020016040519081016040528093929190818152602001838380828437600081840152601f19601f8201169050808301925050505050505091929192908035906020019064010000000081111561047857600080fd5b82018360208201111561048a57600080fd5b803590602001918460018302840111640100000000831117156104ac57600080fd5b91908080601f016020809104026020016040519081016040528093929190818152602001838380828437600081840152601f19601f82011690508083019250505050505050919291929050505061087e565b005b60006020528060005260406000206000915090508060000160009054906101000a900473ffffffffffffffffffffffffffffffffffffffff1690806001018054600181600116156101000203166002900480601f0160208091040260200160405190810160405280929190818152602001828054600181600116156101000203166002900480156105d25780601f106105a7576101008083540402835291602001916105d2565b820191906000526020600020905b8154815290600101906020018083116105b557829003601f168201915b505050505090806002018054600181600116156101000203166002900480601f0160208091040260200160405190810160405280929190818152602001828054600181600116156101000203166002900480156106705780601f1061064557610100808354040283529160200191610670565b820191906000526020600020905b81548152906001019060200180831161065357829003601f168201915b5050505050905083565b6060806000808473ffffffffffffffffffffffffffffffffffffffff1673ffffffffffffffffffffffffffffffffffffffff1681526020019081526020016000206001016000808573ffffffffffffffffffffffffffffffffffffffff1673ffffffffffffffffffffffffffffffffffffffff168152602001908152602001600020600201818054600181600116156101000203166002900480601f0160208091040260200160405190810160405280929190818152602001828054600181600116156101000203166002900480156107945780601f1061076957610100808354040283529160200191610794565b820191906000526020600020905b81548152906001019060200180831161077757829003601f168201915b50505050509150808054600181600116156101000203166002900480601f0160208091040260200160405190810160405280929190818152602001828054600181600116156101000203166002900480156108305780601f1061080557610100808354040283529160200191610830565b820191906000526020600020905b81548152906001019060200180831161081357829003601f168201915b5050505050905091509150915091565b60018181548110151561084f57fe5b906000526020600020016000915054906101000a900473ffffffffffffffffffffffffffffffffffffffff1681565b6060604051908101604052808473ffffffffffffffffffffffffffffffffffffffff168152602001838152602001828152506000803373ffffffffffffffffffffffffffffffffffffffff1673ffffffffffffffffffffffffffffffffffffffff16815260200190815260200160002060008201518160000160006101000a81548173ffffffffffffffffffffffffffffffffffffffff021916908373ffffffffffffffffffffffffffffffffffffffff1602179055506020820151816001019080519060200190610951929190610977565b50604082015181600201908051906020019061096e929190610977565b50905050505050565b828054600181600116156101000203166002900490600052602060002090601f016020900481019282601f106109b857805160ff19168380011785556109e6565b828001600101855582156109e6579182015b828111156109e55782518255916020019190600101906109ca565b5b5090506109f391906109f7565b5090565b610a1991905b80821115610a155760008160009055506001016109fd565b5090565b9056fea165627a7a7230582091feebcbd008ab3d097210785478964dfe6320a9ccea055d1118b982b3deacad0029",
  "source": "pragma solidity >=0.4.13 ;//<0.6.0;\n//pragma experimental ABIEncoderV2;\n\ncontract RegistroAutorContract {\n\n\tstruct Documento{\n\t    address Id; \n\t\tstring HashDocumento;\n\t\tstring NombreDocumento;\n\t}\n\n\tmapping (address => Documento) public Documentos;\n\taddress[] public AutorAccts;\n\n\tfunction RegistrarDocumento(address id, string memory hashDoc, string memory nombreDoc) public{\t    \n\t\tDocumentos[msg.sender] = Documento({\n\t\t    Id : id,\n\t\t    HashDocumento : hashDoc,\n\t\t    NombreDocumento : nombreDoc\n\t\t});\n\t}\n\n    // Lista los documentos registrados por usuario\n    function ListarDocumentos(address id) view public returns (string memory HashDocumento, string memory NombreDocumento) {\n\t\treturn(Documentos[id].HashDocumento, Documentos[id].NombreDocumento);\n    }\n}",
  "sourcePath": "C:/dapp/contracts/RegistroAutorContract.sol",
  "compiler": {
    "name": "solc",
    "version": "0.5.0+commit.1d4f565a.Emscripten.clang"
  },
  "schemaVersion": "3.0.9",
  "updatedAt": "2019-05-28T01:45:30.997Z",
  "devdoc": {
    "methods": {}
  },
  "userdoc": {
    "methods": {}
  }
}